{
  "_format": "hh-sol-artifact-1",
  "contractName": "FootballCoin",
  "sourceName": "contracts/FootballCoin.sol",
  "abi": [
    {
      "inputs": [
        {
          "internalType": "address",
          "name": "initialOwner",
          "type": "address"
        }
      ],
      "stateMutability": "nonpayable",
      "type": "constructor"
    },
    {
      "inputs": [],
      "name": "InvalidShortString",
      "type": "error"
    },
    {
      "inputs": [
        {
          "internalType": "string",
          "name": "str",
          "type": "string"
        }
      ],
      "name": "StringTooLong",
      "type": "error"
    },
    {
      "anonymous": false,
      "inputs": [
        {
          "indexed": true,
          "internalType": "address",
          "name": "owner",
          "type": "address"
        },
        {
          "indexed": true,
          "internalType": "address",
          "name": "spender",
          "type": "address"
        },
        {
          "indexed": false,
          "internalType": "uint256",
          "name": "value",
          "type": "uint256"
        }
      ],
      "name": "Approval",
      "type": "event"
    },
    {
      "anonymous": false,
      "inputs": [],
      "name": "EIP712DomainChanged",
      "type": "event"
    },
    {
      "anonymous": false,
      "inputs": [
        {
          "indexed": true,
          "internalType": "address",
          "name": "previousOwner",
          "type": "address"
        },
        {
          "indexed": true,
          "internalType": "address",
          "name": "newOwner",
          "type": "address"
        }
      ],
      "name": "OwnershipTransferred",
      "type": "event"
    },
    {
      "anonymous": false,
      "inputs": [
        {
          "indexed": true,
          "internalType": "address",
          "name": "from",
          "type": "address"
        },
        {
          "indexed": true,
          "internalType": "address",
          "name": "to",
          "type": "address"
        },
        {
          "indexed": false,
          "internalType": "uint256",
          "name": "value",
          "type": "uint256"
        }
      ],
      "name": "Transfer",
      "type": "event"
    },
    {
      "inputs": [],
      "name": "DOMAIN_SEPARATOR",
      "outputs": [
        {
          "internalType": "bytes32",
          "name": "",
          "type": "bytes32"
        }
      ],
      "stateMutability": "view",
      "type": "function"
    },
    {
      "inputs": [
        {
          "internalType": "address",
          "name": "owner",
          "type": "address"
        },
        {
          "internalType": "address",
          "name": "spender",
          "type": "address"
        }
      ],
      "name": "allowance",
      "outputs": [
        {
          "internalType": "uint256",
          "name": "",
          "type": "uint256"
        }
      ],
      "stateMutability": "view",
      "type": "function"
    },
    {
      "inputs": [
        {
          "internalType": "address",
          "name": "spender",
          "type": "address"
        },
        {
          "internalType": "uint256",
          "name": "amount",
          "type": "uint256"
        }
      ],
      "name": "approve",
      "outputs": [
        {
          "internalType": "bool",
          "name": "",
          "type": "bool"
        }
      ],
      "stateMutability": "nonpayable",
      "type": "function"
    },
    {
      "inputs": [
        {
          "internalType": "address",
          "name": "account",
          "type": "address"
        }
      ],
      "name": "balanceOf",
      "outputs": [
        {
          "internalType": "uint256",
          "name": "",
          "type": "uint256"
        }
      ],
      "stateMutability": "view",
      "type": "function"
    },
    {
      "inputs": [],
      "name": "decimals",
      "outputs": [
        {
          "internalType": "uint8",
          "name": "",
          "type": "uint8"
        }
      ],
      "stateMutability": "view",
      "type": "function"
    },
    {
      "inputs": [
        {
          "internalType": "address",
          "name": "spender",
          "type": "address"
        },
        {
          "internalType": "uint256",
          "name": "subtractedValue",
          "type": "uint256"
        }
      ],
      "name": "decreaseAllowance",
      "outputs": [
        {
          "internalType": "bool",
          "name": "",
          "type": "bool"
        }
      ],
      "stateMutability": "nonpayable",
      "type": "function"
    },
    {
      "inputs": [],
      "name": "eip712Domain",
      "outputs": [
        {
          "internalType": "bytes1",
          "name": "fields",
          "type": "bytes1"
        },
        {
          "internalType": "string",
          "name": "name",
          "type": "string"
        },
        {
          "internalType": "string",
          "name": "version",
          "type": "string"
        },
        {
          "internalType": "uint256",
          "name": "chainId",
          "type": "uint256"
        },
        {
          "internalType": "address",
          "name": "verifyingContract",
          "type": "address"
        },
        {
          "internalType": "bytes32",
          "name": "salt",
          "type": "bytes32"
        },
        {
          "internalType": "uint256[]",
          "name": "extensions",
          "type": "uint256[]"
        }
      ],
      "stateMutability": "view",
      "type": "function"
    },
    {
      "inputs": [
        {
          "internalType": "address",
          "name": "spender",
          "type": "address"
        },
        {
          "internalType": "uint256",
          "name": "addedValue",
          "type": "uint256"
        }
      ],
      "name": "increaseAllowance",
      "outputs": [
        {
          "internalType": "bool",
          "name": "",
          "type": "bool"
        }
      ],
      "stateMutability": "nonpayable",
      "type": "function"
    },
    {
      "inputs": [
        {
          "internalType": "address",
          "name": "to",
          "type": "address"
        },
        {
          "internalType": "uint256",
          "name": "amount",
          "type": "uint256"
        }
      ],
      "name": "mint",
      "outputs": [],
      "stateMutability": "nonpayable",
      "type": "function"
    },
    {
      "inputs": [],
      "name": "name",
      "outputs": [
        {
          "internalType": "string",
          "name": "",
          "type": "string"
        }
      ],
      "stateMutability": "view",
      "type": "function"
    },
    {
      "inputs": [
        {
          "internalType": "address",
          "name": "owner",
          "type": "address"
        }
      ],
      "name": "nonces",
      "outputs": [
        {
          "internalType": "uint256",
          "name": "",
          "type": "uint256"
        }
      ],
      "stateMutability": "view",
      "type": "function"
    },
    {
      "inputs": [],
      "name": "owner",
      "outputs": [
        {
          "internalType": "address",
          "name": "",
          "type": "address"
        }
      ],
      "stateMutability": "view",
      "type": "function"
    },
    {
      "inputs": [
        {
          "internalType": "address",
          "name": "owner",
          "type": "address"
        },
        {
          "internalType": "address",
          "name": "spender",
          "type": "address"
        },
        {
          "internalType": "uint256",
          "name": "value",
          "type": "uint256"
        },
        {
          "internalType": "uint256",
          "name": "deadline",
          "type": "uint256"
        },
        {
          "internalType": "uint8",
          "name": "v",
          "type": "uint8"
        },
        {
          "internalType": "bytes32",
          "name": "r",
          "type": "bytes32"
        },
        {
          "internalType": "bytes32",
          "name": "s",
          "type": "bytes32"
        }
      ],
      "name": "permit",
      "outputs": [],
      "stateMutability": "nonpayable",
      "type": "function"
    },
    {
      "inputs": [],
      "name": "renounceOwnership",
      "outputs": [],
      "stateMutability": "nonpayable",
      "type": "function"
    },
    {
      "inputs": [],
      "name": "symbol",
      "outputs": [
        {
          "internalType": "string",
          "name": "",
          "type": "string"
        }
      ],
      "stateMutability": "view",
      "type": "function"
    },
    {
      "inputs": [],
      "name": "totalSupply",
      "outputs": [
        {
          "internalType": "uint256",
          "name": "",
          "type": "uint256"
        }
      ],
      "stateMutability": "view",
      "type": "function"
    },
    {
      "inputs": [
        {
          "internalType": "address",
          "name": "to",
          "type": "address"
        },
        {
          "internalType": "uint256",
          "name": "amount",
          "type": "uint256"
        }
      ],
      "name": "transfer",
      "outputs": [
        {
          "internalType": "bool",
          "name": "",
          "type": "bool"
        }
      ],
      "stateMutability": "nonpayable",
      "type": "function"
    },
    {
      "inputs": [
        {
          "internalType": "address",
          "name": "from",
          "type": "address"
        },
        {
          "internalType": "address",
          "name": "to",
          "type": "address"
        },
        {
          "internalType": "uint256",
          "name": "amount",
          "type": "uint256"
        }
      ],
      "name": "transferFrom",
      "outputs": [
        {
          "internalType": "bool",
          "name": "",
          "type": "bool"
        }
      ],
      "stateMutability": "nonpayable",
      "type": "function"
    },
    {
      "inputs": [
        {
          "internalType": "address",
          "name": "newOwner",
          "type": "address"
        }
      ],
      "name": "transferOwnership",
      "outputs": [],
      "stateMutability": "nonpayable",
      "type": "function"
    },
    {
      "inputs": [
        {
          "internalType": "address",
          "name": "user",
          "type": "address"
        }
      ],
      "name": "userBalanceOf",
      "outputs": [
        {
          "internalType": "uint256",
          "name": "",
          "type": "uint256"
        }
      ],
      "stateMutability": "view",
      "type": "function"
    }
  ],
  "bytecode": "0x6101606040523480156200001257600080fd5b5060405162001a9538038062001a958339810160408190526200003591620002c0565b6040518060400160405280600c81526020016b2337b7ba3130b63621b7b4b760a11b81525080604051806040016040528060018152602001603160f81b8152506040518060400160405280600c81526020016b2337b7ba3130b63621b7b4b760a11b8152506040518060400160405280600381526020016246424360e81b8152508160039081620000c7919062000397565b506004620000d6828262000397565b505050620000f3620000ed620001cb60201b60201c565b620001cf565b6200010e6006836200022160201b6200075b1790919060201c565b610120526200012b81600762000221602090811b6200075b17901c565b61014052815160208084019190912060e052815190820120610100524660a052620001b960e05161010051604080517f8b73c3c69bb8fe3d512ecc4cf759cc79239f7b179b0ffacaa9a75d522b39400f60208201529081019290925260608201524660808201523060a082015260009060c00160405160208183030381529060405280519060200120905090565b60805250503060c05250620004d89050565b3390565b600580546001600160a01b038381166001600160a01b0319831681179093556040519116919082907f8be0079c531659141344cd1fd0a4f28419497f9722a3daafe3b4186f6b6457e090600090a35050565b60006020835110156200024157620002398362000271565b90506200026b565b826200025883620002bd60201b6200078c1760201c565b9062000265908262000397565b5060ff90505b92915050565b600080829050601f81511115620002a8578260405163305a27a960e01b81526004016200029f919062000463565b60405180910390fd5b8051620002b582620004b3565b179392505050565b90565b600060208284031215620002d357600080fd5b81516001600160a01b0381168114620002eb57600080fd5b9392505050565b634e487b7160e01b600052604160045260246000fd5b600181811c908216806200031d57607f821691505b6020821081036200033e57634e487b7160e01b600052602260045260246000fd5b50919050565b601f8211156200039257600081815260208120601f850160051c810160208610156200036d5750805b601f850160051c820191505b818110156200038e5782815560010162000379565b5050505b505050565b81516001600160401b03811115620003b357620003b3620002f2565b620003cb81620003c4845462000308565b8462000344565b602080601f831160018114620004035760008415620003ea5750858301515b600019600386901b1c1916600185901b1785556200038e565b600085815260208120601f198616915b82811015620004345788860151825594840194600190910190840162000413565b5085821015620004535787850151600019600388901b60f8161c191681555b5050505050600190811b01905550565b600060208083528351808285015260005b81811015620004925785810183015185820160400152820162000474565b506000604082860101526040601f19601f8301168501019250505092915050565b805160208083015191908110156200033e5760001960209190910360031b1b16919050565b60805160a05160c05160e0516101005161012051610140516115626200053360003960006104660152600061043b01526000610bab01526000610b8301526000610ade01526000610b0801526000610b3201526115626000f3fe608060405234801561001057600080fd5b506004361061012c5760003560e01c8063715018a6116100ad578063a457c2d711610071578063a457c2d71461026f578063a9059cbb14610282578063d505accf14610295578063dd62ed3e146102a8578063f2fde38b146102bb57600080fd5b8063715018a6146102165780637ecebe001461021e57806384b0196e146102315780638da5cb5b1461024c57806395d89b411461026757600080fd5b8063313ce567116100f4578063313ce567146101ae5780633644e515146101bd57806339509351146101c557806340c10f19146101d857806370a08231146101ed57600080fd5b806306fdde0314610131578063095ea7b31461014f5780630cb222891461017257806318160ddd1461019357806323b872dd1461019b575b600080fd5b6101396102ce565b6040516101469190611186565b60405180910390f35b61016261015d3660046111bc565b610360565b6040519015158152602001610146565b6101856101803660046111e6565b61037a565b604051908152602001610146565b600254610185565b6101626101a9366004611201565b610398565b60405160128152602001610146565b6101856103bc565b6101626101d33660046111bc565b6103cb565b6101eb6101e63660046111bc565b6103ed565b005b6101856101fb3660046111e6565b6001600160a01b031660009081526020819052604090205490565b6101eb6103fb565b61018561022c3660046111e6565b61040f565b61023961042d565b604051610146979695949392919061123d565b6005546040516001600160a01b039091168152602001610146565b6101396104b6565b61016261027d3660046111bc565b6104c5565b6101626102903660046111bc565b610545565b6101eb6102a33660046112d3565b610553565b6101856102b6366004611346565b6106b7565b6101eb6102c93660046111e6565b6106e2565b6060600380546102dd90611379565b80601f016020809104026020016040519081016040528092919081815260200182805461030990611379565b80156103565780601f1061032b57610100808354040283529160200191610356565b820191906000526020600020905b81548152906001019060200180831161033957829003601f168201915b5050505050905090565b60003361036e81858561078f565b60019150505b92915050565b6001600160a01b038116600090815260208190526040812054610374565b6000336103a68582856108b3565b6103b185858561092d565b506001949350505050565b60006103c6610ad1565b905090565b60003361036e8185856103de83836106b7565b6103e891906113ad565b61078f565b6103f78282610bfc565b5050565b610403610cbb565b61040d6000610d15565b565b6001600160a01b038116600090815260086020526040812054610374565b6000606080828080836104617f00000000000000000000000000000000000000000000000000000000000000006006610d67565b61048c7f00000000000000000000000000000000000000000000000000000000000000006007610d67565b60408051600080825260208201909252600f60f81b9b939a50919850469750309650945092509050565b6060600480546102dd90611379565b600033816104d382866106b7565b9050838110156105385760405162461bcd60e51b815260206004820152602560248201527f45524332303a2064656372656173656420616c6c6f77616e63652062656c6f77604482015264207a65726f60d81b60648201526084015b60405180910390fd5b6103b1828686840361078f565b60003361036e81858561092d565b834211156105a35760405162461bcd60e51b815260206004820152601d60248201527f45524332305065726d69743a206578706972656420646561646c696e65000000604482015260640161052f565b60007f6e71edae12b1b97f4d1f60370fef10105fa2faae0126114a169c64845d6126c98888886105d28c610e0b565b6040805160208101969096526001600160a01b0394851690860152929091166060840152608083015260a082015260c0810186905260e001604051602081830303815290604052805190602001209050600061062d82610e33565b9050600061063d82878787610e60565b9050896001600160a01b0316816001600160a01b0316146106a05760405162461bcd60e51b815260206004820152601e60248201527f45524332305065726d69743a20696e76616c6964207369676e61747572650000604482015260640161052f565b6106ab8a8a8a61078f565b50505050505050505050565b6001600160a01b03918216600090815260016020908152604080832093909416825291909152205490565b6106ea610cbb565b6001600160a01b03811661074f5760405162461bcd60e51b815260206004820152602660248201527f4f776e61626c653a206e6577206f776e657220697320746865207a65726f206160448201526564647265737360d01b606482015260840161052f565b61075881610d15565b50565b60006020835110156107775761077083610e88565b9050610374565b816107828482611432565b5060ff9050610374565b90565b6001600160a01b0383166107f15760405162461bcd60e51b8152602060048201526024808201527f45524332303a20617070726f76652066726f6d20746865207a65726f206164646044820152637265737360e01b606482015260840161052f565b6001600160a01b0382166108525760405162461bcd60e51b815260206004820152602260248201527f45524332303a20617070726f766520746f20746865207a65726f206164647265604482015261737360f01b606482015260840161052f565b6001600160a01b0383811660008181526001602090815260408083209487168084529482529182902085905590518481527f8c5be1e5ebec7d5bd14f71427d1e84f3dd0314c0f7b2291e5b200ac8c7c3b925910160405180910390a3505050565b60006108bf84846106b7565b90506000198114610927578181101561091a5760405162461bcd60e51b815260206004820152601d60248201527f45524332303a20696e73756666696369656e7420616c6c6f77616e6365000000604482015260640161052f565b610927848484840361078f565b50505050565b6001600160a01b0383166109915760405162461bcd60e51b815260206004820152602560248201527f45524332303a207472616e736665722066726f6d20746865207a65726f206164604482015264647265737360d81b606482015260840161052f565b6001600160a01b0382166109f35760405162461bcd60e51b815260206004820152602360248201527f45524332303a207472616e7366657220746f20746865207a65726f206164647260448201526265737360e81b606482015260840161052f565b6001600160a01b03831660009081526020819052604090205481811015610a6b5760405162461bcd60e51b815260206004820152602660248201527f45524332303a207472616e7366657220616d6f756e7420657863656564732062604482015265616c616e636560d01b606482015260840161052f565b6001600160a01b03848116600081815260208181526040808320878703905593871680835291849020805487019055925185815290927fddf252ad1be2c89b69c2b068fc378daa952ba7f163c4a11628f55a4df523b3ef910160405180910390a3610927565b6000306001600160a01b037f000000000000000000000000000000000000000000000000000000000000000016148015610b2a57507f000000000000000000000000000000000000000000000000000000000000000046145b15610b5457507f000000000000000000000000000000000000000000000000000000000000000090565b6103c6604080517f8b73c3c69bb8fe3d512ecc4cf759cc79239f7b179b0ffacaa9a75d522b39400f60208201527f0000000000000000000000000000000000000000000000000000000000000000918101919091527f000000000000000000000000000000000000000000000000000000000000000060608201524660808201523060a082015260009060c00160405160208183030381529060405280519060200120905090565b6001600160a01b038216610c525760405162461bcd60e51b815260206004820152601f60248201527f45524332303a206d696e7420746f20746865207a65726f206164647265737300604482015260640161052f565b8060026000828254610c6491906113ad565b90915550506001600160a01b038216600081815260208181526040808320805486019055518481527fddf252ad1be2c89b69c2b068fc378daa952ba7f163c4a11628f55a4df523b3ef910160405180910390a35050565b6005546001600160a01b0316331461040d5760405162461bcd60e51b815260206004820181905260248201527f4f776e61626c653a2063616c6c6572206973206e6f7420746865206f776e6572604482015260640161052f565b600580546001600160a01b038381166001600160a01b0319831681179093556040519116919082907f8be0079c531659141344cd1fd0a4f28419497f9722a3daafe3b4186f6b6457e090600090a35050565b606060ff8314610d7a5761077083610ecb565b818054610d8690611379565b80601f0160208091040260200160405190810160405280929190818152602001828054610db290611379565b8015610dff5780601f10610dd457610100808354040283529160200191610dff565b820191906000526020600020905b815481529060010190602001808311610de257829003601f168201915b50505050509050610374565b6001600160a01b03811660009081526008602052604090208054600181018255905b50919050565b6000610374610e40610ad1565b8360405161190160f01b8152600281019290925260228201526042902090565b6000806000610e7187878787610f0a565b91509150610e7e81610fce565b5095945050505050565b600080829050601f81511115610eb3578260405163305a27a960e01b815260040161052f9190611186565b8051610ebe826114f2565b179392505050565b505050565b60606000610ed883611118565b604080516020808252818301909252919250600091906020820181803683375050509182525060208101929092525090565b6000807f7fffffffffffffffffffffffffffffff5d576e7357a4501ddfe92f46681b20a0831115610f415750600090506003610fc5565b6040805160008082526020820180845289905260ff881692820192909252606081018690526080810185905260019060a0016020604051602081039080840390855afa158015610f95573d6000803e3d6000fd5b5050604051601f1901519150506001600160a01b038116610fbe57600060019250925050610fc5565b9150600090505b94509492505050565b6000816004811115610fe257610fe2611516565b03610fea5750565b6001816004811115610ffe57610ffe611516565b0361104b5760405162461bcd60e51b815260206004820152601860248201527f45434453413a20696e76616c6964207369676e61747572650000000000000000604482015260640161052f565b600281600481111561105f5761105f611516565b036110ac5760405162461bcd60e51b815260206004820152601f60248201527f45434453413a20696e76616c6964207369676e6174757265206c656e67746800604482015260640161052f565b60038160048111156110c0576110c0611516565b036107585760405162461bcd60e51b815260206004820152602260248201527f45434453413a20696e76616c6964207369676e6174757265202773272076616c604482015261756560f01b606482015260840161052f565b600060ff8216601f81111561037457604051632cd44ac360e21b815260040160405180910390fd5b6000815180845260005b818110156111665760208185018101518683018201520161114a565b506000602082860101526020601f19601f83011685010191505092915050565b6020815260006111996020830184611140565b9392505050565b80356001600160a01b03811681146111b757600080fd5b919050565b600080604083850312156111cf57600080fd5b6111d8836111a0565b946020939093013593505050565b6000602082840312156111f857600080fd5b611199826111a0565b60008060006060848603121561121657600080fd5b61121f846111a0565b925061122d602085016111a0565b9150604084013590509250925092565b60ff60f81b881681526000602060e08184015261125d60e084018a611140565b838103604085015261126f818a611140565b606085018990526001600160a01b038816608086015260a0850187905284810360c0860152855180825283870192509083019060005b818110156112c1578351835292840192918401916001016112a5565b50909c9b505050505050505050505050565b600080600080600080600060e0888a0312156112ee57600080fd5b6112f7886111a0565b9650611305602089016111a0565b95506040880135945060608801359350608088013560ff8116811461132957600080fd5b9699959850939692959460a0840135945060c09093013592915050565b6000806040838503121561135957600080fd5b611362836111a0565b9150611370602084016111a0565b90509250929050565b600181811c9082168061138d57607f821691505b602082108103610e2d57634e487b7160e01b600052602260045260246000fd5b8082018082111561037457634e487b7160e01b600052601160045260246000fd5b634e487b7160e01b600052604160045260246000fd5b601f821115610ec657600081815260208120601f850160051c8101602086101561140b5750805b601f850160051c820191505b8181101561142a57828155600101611417565b505050505050565b815167ffffffffffffffff81111561144c5761144c6113ce565b6114608161145a8454611379565b846113e4565b602080601f831160018114611495576000841561147d5750858301515b600019600386901b1c1916600185901b17855561142a565b600085815260208120601f198616915b828110156114c4578886015182559484019460019091019084016114a5565b50858210156114e25787850151600019600388901b60f8161c191681555b5050505050600190811b01905550565b80516020808301519190811015610e2d5760001960209190910360031b1b16919050565b634e487b7160e01b600052602160045260246000fdfea264697066735822122008cca620d2a594028ac421278e2873ced54cd0c06075ca11ad768762251cbc7a64736f6c63430008110033",
  "linkReferences": {},
  "deployedLinkReferences": {}
}