{
  "_format": "hh-sol-artifact-1",
  "contractName": "FootballGame",
  "sourceName": "contracts/FootballGame.sol",
  "abi": [
    {
      "inputs": [
        {
          "internalType": "contract IERC20",
          "name": "_footballCoin",
          "type": "address"
        },
        {
          "internalType": "uint256",
          "name": "_timelockBlocks",
          "type": "uint256"
        }
      ],
      "stateMutability": "nonpayable",
      "type": "constructor"
    },
    {
      "anonymous": false,
      "inputs": [
        {
          "indexed": false,
          "internalType": "uint256",
          "name": "gameId",
          "type": "uint256"
        },
        {
          "indexed": true,
          "internalType": "address",
          "name": "sender",
          "type": "address"
        },
        {
          "indexed": true,
          "internalType": "address",
          "name": "recipient",
          "type": "address"
        },
        {
          "indexed": false,
          "internalType": "uint256",
          "name": "wagerAmount",
          "type": "uint256"
        },
        {
          "indexed": false,
          "internalType": "uint256",
          "name": "blockNumber",
          "type": "uint256"
        }
      ],
      "name": "GameAccepted",
      "type": "event"
    },
    {
      "anonymous": false,
      "inputs": [
        {
          "indexed": false,
          "internalType": "uint256",
          "name": "gameId",
          "type": "uint256"
        },
        {
          "indexed": true,
          "internalType": "address",
          "name": "sender",
          "type": "address"
        },
        {
          "indexed": true,
          "internalType": "address",
          "name": "recipient",
          "type": "address"
        }
      ],
      "name": "GameFinished",
      "type": "event"
    },
    {
      "anonymous": false,
      "inputs": [
        {
          "indexed": false,
          "internalType": "uint256",
          "name": "gameId",
          "type": "uint256"
        },
        {
          "indexed": true,
          "internalType": "address",
          "name": "sender",
          "type": "address"
        },
        {
          "indexed": true,
          "internalType": "address",
          "name": "recipient",
          "type": "address"
        }
      ],
      "name": "GameFinishedByTimelock",
      "type": "event"
    },
    {
      "anonymous": false,
      "inputs": [
        {
          "indexed": false,
          "internalType": "uint256",
          "name": "gameId",
          "type": "uint256"
        },
        {
          "indexed": true,
          "internalType": "address",
          "name": "sender",
          "type": "address"
        },
        {
          "indexed": true,
          "internalType": "address",
          "name": "recipient",
          "type": "address"
        },
        {
          "indexed": false,
          "internalType": "uint256",
          "name": "wagerAmount",
          "type": "uint256"
        },
        {
          "indexed": false,
          "internalType": "uint256",
          "name": "blockNumber",
          "type": "uint256"
        }
      ],
      "name": "GameProposed",
      "type": "event"
    },
    {
      "inputs": [
        {
          "internalType": "uint256",
          "name": "gameId",
          "type": "uint256"
        },
        {
          "internalType": "uint256[]",
          "name": "formation",
          "type": "uint256[]"
        }
      ],
      "name": "acceptGame",
      "outputs": [],
      "stateMutability": "nonpayable",
      "type": "function"
    },
    {
      "inputs": [
        {
          "internalType": "uint256",
          "name": "playerId",
          "type": "uint256"
        },
        {
          "internalType": "uint256",
          "name": "teamId",
          "type": "uint256"
        },
        {
          "internalType": "uint256",
          "name": "position",
          "type": "uint256"
        },
        {
          "internalType": "uint128",
          "name": "attack",
          "type": "uint128"
        },
        {
          "internalType": "uint128",
          "name": "defense",
          "type": "uint128"
        },
        {
          "internalType": "uint128",
          "name": "speed",
          "type": "uint128"
        },
        {
          "internalType": "uint128",
          "name": "power",
          "type": "uint128"
        },
        {
          "internalType": "uint128",
          "name": "stamina",
          "type": "uint128"
        },
        {
          "internalType": "uint128",
          "name": "technique",
          "type": "uint128"
        },
        {
          "internalType": "uint128",
          "name": "goalkeeping",
          "type": "uint128"
        }
      ],
      "name": "addPlayer",
      "outputs": [],
      "stateMutability": "nonpayable",
      "type": "function"
    },
    {
      "inputs": [],
      "name": "footballCoin",
      "outputs": [
        {
          "internalType": "contract IERC20",
          "name": "",
          "type": "address"
        }
      ],
      "stateMutability": "view",
      "type": "function"
    },
    {
      "inputs": [],
      "name": "gameCount",
      "outputs": [
        {
          "internalType": "uint256",
          "name": "",
          "type": "uint256"
        }
      ],
      "stateMutability": "view",
      "type": "function"
    },
    {
      "inputs": [
        {
          "internalType": "uint256",
          "name": "",
          "type": "uint256"
        }
      ],
      "name": "games",
      "outputs": [
        {
          "internalType": "uint256",
          "name": "gameId",
          "type": "uint256"
        },
        {
          "internalType": "address",
          "name": "challenger",
          "type": "address"
        },
        {
          "internalType": "address",
          "name": "opponent",
          "type": "address"
        },
        {
          "internalType": "uint256",
          "name": "wagerAmount",
          "type": "uint256"
        },
        {
          "components": [
            {
              "internalType": "uint256",
              "name": "goalsHomeTeam",
              "type": "uint256"
            },
            {
              "internalType": "uint256",
              "name": "goalsAwayTeam",
              "type": "uint256"
            }
          ],
          "internalType": "struct FootballGame.GameResult",
          "name": "result",
          "type": "tuple"
        },
        {
          "internalType": "uint256",
          "name": "blockNumber",
          "type": "uint256"
        },
        {
          "internalType": "enum FootballGame.Status",
          "name": "status",
          "type": "uint8"
        }
      ],
      "stateMutability": "view",
      "type": "function"
    },
    {
      "inputs": [],
      "name": "getGameCount",
      "outputs": [
        {
          "internalType": "uint256",
          "name": "",
          "type": "uint256"
        }
      ],
      "stateMutability": "view",
      "type": "function"
    },
    {
      "inputs": [
        {
          "internalType": "uint256",
          "name": "gameId",
          "type": "uint256"
        }
      ],
      "name": "opponentClaimTimelock",
      "outputs": [],
      "stateMutability": "nonpayable",
      "type": "function"
    },
    {
      "inputs": [],
      "name": "owner",
      "outputs": [
        {
          "internalType": "address",
          "name": "",
          "type": "address"
        }
      ],
      "stateMutability": "view",
      "type": "function"
    },
    {
      "inputs": [
        {
          "internalType": "uint256",
          "name": "",
          "type": "uint256"
        }
      ],
      "name": "players",
      "outputs": [
        {
          "internalType": "uint256",
          "name": "player_id",
          "type": "uint256"
        },
        {
          "internalType": "uint256",
          "name": "team_id",
          "type": "uint256"
        },
        {
          "internalType": "uint256",
          "name": "position",
          "type": "uint256"
        },
        {
          "internalType": "uint128",
          "name": "attack",
          "type": "uint128"
        },
        {
          "internalType": "uint128",
          "name": "defense",
          "type": "uint128"
        },
        {
          "internalType": "uint128",
          "name": "speed",
          "type": "uint128"
        },
        {
          "internalType": "uint128",
          "name": "power",
          "type": "uint128"
        },
        {
          "internalType": "uint128",
          "name": "stamina",
          "type": "uint128"
        },
        {
          "internalType": "uint128",
          "name": "technique",
          "type": "uint128"
        },
        {
          "internalType": "uint128",
          "name": "goalkeeping",
          "type": "uint128"
        }
      ],
      "stateMutability": "view",
      "type": "function"
    },
    {
      "inputs": [
        {
          "internalType": "address",
          "name": "opponent",
          "type": "address"
        },
        {
          "internalType": "uint256",
          "name": "wagerAmount",
          "type": "uint256"
        },
        {
          "internalType": "uint256[]",
          "name": "formation",
          "type": "uint256[]"
        }
      ],
      "name": "proposeGame",
      "outputs": [],
      "stateMutability": "nonpayable",
      "type": "function"
    },
    {
      "inputs": [
        {
          "internalType": "uint256",
          "name": "gameId",
          "type": "uint256"
        }
      ],
      "name": "revealOutcome",
      "outputs": [],
      "stateMutability": "nonpayable",
      "type": "function"
    },
    {
      "inputs": [],
      "name": "timelockBlocks",
      "outputs": [
        {
          "internalType": "uint256",
          "name": "",
          "type": "uint256"
        }
      ],
      "stateMutability": "view",
      "type": "function"
    }
  ],
  "bytecode": "0x608060405234801561001057600080fd5b506040516118c43803806118c483398101604081905261002f91610066565b60008054336001600160a01b031991821617909155600180549091166001600160a01b0393909316929092179091556002556100a0565b6000806040838503121561007957600080fd5b82516001600160a01b038116811461009057600080fd5b6020939093015192949293505050565b611815806100af6000396000f3fe608060405234801561001057600080fd5b50600436106100b45760003560e01c806394b1e5951161007157806394b1e595146101c4578063cd86f810146101d7578063cfb94798146101ea578063e87c0ee6146101fd578063f71d96cb14610205578063fda0f9a2146102d957600080fd5b8063117a5b90146100b95780634d1975b414610147578063506d7e2d1461015e57806359c892a91461017357806364407bad146101865780638da5cb5b146101b1575b600080fd5b61012b6100c7366004611414565b6004602090815260009182526040918290208054600182015460028301546003840154865180880190975260068501548752600785015495870195909552600884015460099094015492956001600160a01b03928316959190921693909260ff1687565b60405161013e9796959493929190611443565b60405180910390f35b61015060055481565b60405190815260200161013e565b61017161016c3660046114d0565b6102e2565b005b610171610181366004611626565b61042b565b600154610199906001600160a01b031681565b6040516001600160a01b03909116815260200161013e565b600054610199906001600160a01b031681565b6101716101d2366004611414565b610761565b6101716101e536600461166d565b6108de565b6101716101f8366004611414565b610c73565b600554610150565b61027c610213366004611414565b600660208190526000918252604090912080546001820154600283015460038401546004850154600586015495909601549395929491936001600160801b0380831694600160801b9384900482169481831694918290048316938184169392909104821691168a565b604080519a8b5260208b0199909952978901969096526001600160801b039485166060890152928416608088015290831660a0870152821660c0860152811660e0850152908116610100840152166101208201526101400161013e565b61015060025481565b6000546001600160a01b031633146103415760405162461bcd60e51b815260206004820152601760248201527f43616c6c6572206973206e6f7420746865206f776e657200000000000000000060448201526064015b60405180910390fd5b60408051610140810182528b815260208082019b8c528183019a8b526001600160801b03998a1660608301908152988a1660808301908152978a1660a08301908152968a1660c08301908152958a1660e08301908152948a166101008301908152938a16610120830190815260009d8e5260069182905292909c2090518155995160018b0155975160028a015594519351938616600160801b94871685021760038901559151905190851690851683021760048701555191519183169183160217600584015590519190920180546fffffffffffffffffffffffffffffffff191691909216179055565b600082815260046020526040902060028101546001600160a01b031633146104a35760405162461bcd60e51b815260206004820152602560248201527f4f6e6c7920746865206f70706f6e656e742063616e20616363657074207468656044820152642067616d6560d81b6064820152608401610338565b6003810154600154604051636eb1769f60e11b81523360048201523060248201526001600160a01b039091169063dd62ed3e90604401602060405180830381865afa1580156104f6573d6000803e3d6000fd5b505050506040513d601f19601f8201168201806040525081019061051a91906116d2565b10156105685760405162461bcd60e51b815260206004820181905260248201527f496e73756666696369656e7420616c6c6f77616e636520666f722077616765726044820152606401610338565b6000600982015460ff1660038111156105835761058361142d565b146105c25760405162461bcd60e51b815260206004820152600f60248201526e496e636f727265637420737461746560881b6044820152606401610338565b60005b825181101561065357600660008483815181106105e4576105e46116eb565b60200260200101518152602001908152602001600020600001546000036106415760405162461bcd60e51b8152602060048201526011602482015270125b9d985b1a59081c1b185e595c881a59607a1b6044820152606401610338565b8061064b81611717565b9150506105c5565b5060015460038201546040516323b872dd60e01b815233600482015230602482015260448101919091526001600160a01b03909116906323b872dd906064016020604051808303816000875af11580156106b1573d6000803e3d6000fd5b505050506040513d601f19601f820116820180604052508101906106d59190611730565b5081516106eb9060058301906020850190611374565b50436008820181905560098201805460ff1916600190811790915582015460038301546040805187815260208101929092528101929092526001600160a01b03169033907f3f9bd1ba680334360f5cfe7c55feb3bb67931ebd35c2020b389a5a52a9cc1eb49060600160405180910390a3505050565b600081815260046020526040902060028101546001600160a01b031633146107dc5760405162461bcd60e51b815260206004820152602860248201527f4f6e6c7920746865206f70706f6e656e742063616e20636c61696d207468652060448201526774696d656c6f636b60c01b6064820152608401610338565b60025481600801546107ee9190611759565b431161086c5760405162461bcd60e51b815260206004820152604160248201527f4f70706f6e656e742063616e20636c61696d2074696d656c6f636b206f6e6c7960448201527f2061667465722074696d656c6f636b426c6f636b7320686176652070617373656064820152601960fa1b608482015260a401610338565b60098101805460ff1916600317905560028101546108949082906001600160a01b0316610df1565b60018101546040518381526001600160a01b039091169033907fb6f60e952021d7bcf89b0cc9d3fac667423e6df8dba9bfeedca45c5b8c166adf9060200160405180910390a35050565b600154604051636eb1769f60e11b815233600482015230602482015283916001600160a01b03169063dd62ed3e90604401602060405180830381865afa15801561092c573d6000803e3d6000fd5b505050506040513d601f19601f8201168201806040525081019061095091906116d2565b101561099e5760405162461bcd60e51b815260206004820181905260248201527f496e73756666696369656e7420616c6c6f77616e636520666f722077616765726044820152606401610338565b60005b8151811015610a2f57600660008383815181106109c0576109c06116eb565b6020026020010151815260200190815260200160002060000154600003610a1d5760405162461bcd60e51b8152602060048201526011602482015270125b9d985b1a59081c1b185e595c881a59607a1b6044820152606401610338565b80610a2781611717565b9150506109a1565b506001546040516323b872dd60e01b8152336004820152306024820152604481018490526001600160a01b03909116906323b872dd906064016020604051808303816000875af1158015610a87573d6000803e3d6000fd5b505050506040513d601f19601f82011682018060405250810190610aab9190611730565b506000600560008154610abd90611717565b918290555060408051610120810182528281523360208083019182526001600160a01b03898116848601908152606085018a81528651600080825281860189526080880191825288518181528087018a5260a08901528851808a018a5281815280870182905260c08901524360e0890152610100880181905289815260048087529890208751815595516001870180549186166001600160a01b03199283161790559251600287018054919095169316929092179092559051600384015551805195965092949193610b959390850192910190611374565b5060a08201518051610bb1916005840191602090910190611374565b5060c08201518051600683015560200151600782015560e0820151600882015561010082015160098201805460ff19166001836003811115610bf557610bf561142d565b0217905550505060008181526003602090815260409091208351610c1b92850190611374565b50604080518281526020810185905243918101919091526001600160a01b0385169033907f02c4c4ed29b388428cf1564d10b179c4153a007fb74269c8cc4681465146f50a906060015b60405180910390a350505050565b600081815260046020526040902060018101546001600160a01b03163314610cf05760405162461bcd60e51b815260206004820152602a60248201527f4f6e6c7920746865206368616c6c656e6765722063616e2072657665616c20746044820152696865206f7574636f6d6560b01b6064820152608401610338565b6001600982015460ff166003811115610d0b57610d0b61142d565b14610d4a5760405162461bcd60e51b815260206004820152600f60248201526e496e636f727265637420737461746560881b6044820152606401610338565b60008281526003602052604090208054610d689160048401916113bf565b506000610d748261107a565b805160068401556020810151600784015560098301805460ff1916600217905590506000610da28383611323565b9050610dae8382610df1565b60028301546040518581526001600160a01b039091169033907f242f4c122901edd03165283a5957c7f0445c5227fdaebe5fc500f2c62c61ae0990602001610c65565b6001600160a01b038116610f9d576001805490830154600384015460405163a9059cbb60e01b81526001600160a01b039283166004820152602481019190915291169063a9059cbb906044016020604051808303816000875af1158015610e5c573d6000803e3d6000fd5b505050506040513d601f19601f82011682018060405250810190610e809190611730565b610ecc5760405162461bcd60e51b815260206004820152601d60248201527f5472616e7366657220746f206368616c6c656e676572206661696c65640000006044820152606401610338565b6001546002830154600384015460405163a9059cbb60e01b81526001600160a01b039283166004820152602481019190915291169063a9059cbb906044016020604051808303816000875af1158015610f29573d6000803e3d6000fd5b505050506040513d601f19601f82011682018060405250810190610f4d9190611730565b610f995760405162461bcd60e51b815260206004820152601b60248201527f5472616e7366657220746f206f70706f6e656e74206661696c656400000000006044820152606401610338565b5050565b600082600301546002610fb0919061176c565b60015460405163a9059cbb60e01b81526001600160a01b0385811660048301526024820184905292935091169063a9059cbb906044016020604051808303816000875af1158015611005573d6000803e3d6000fd5b505050506040513d601f19601f820116820180604052508101906110299190611730565b6110755760405162461bcd60e51b815260206004820152601960248201527f5472616e7366657220746f2077696e6e6572206661696c6564000000000000006044820152606401610338565b505050565b6040805180820190915260008082526020820152604080518082019091526000808252602082018190526110af600143611783565b40905060015b600485015481101561131a576000600660008760040184815481106110dc576110dc6116eb565b6000918252602080832090910154835282810193909352604091820181208251610140810184528154815260018201549481019490945260028101549284019290925260038201546001600160801b038082166060860152600160801b918290048116608086015260048085015480831660a0880152839004821660c087015260058086015480841660e08901529390930482166101008701526006948501549091166101208601528a0154939450909283918a019061119d908790611783565b815481106111ad576111ad6116eb565b6000918252602080832090910154835282810193909352604091820181208251610140810184528154815260018201549481019490945260028101549284019290925260038201546001600160801b038082166060860152600160801b9182900481166080860152600484015480821660a080880182905291849004831660c0880152600586015480841660e08901529390930482166101008701526006909401541661012085015291850151929350916112689190611796565b6001600160801b03169050600061127f82876117bd565b9050808460a001516001600160801b031611156112cd5782608001516001600160801b031684606001516001600160801b031611156112c8578651876112c482611717565b9052505b611303565b83608001516001600160801b031683606001516001600160801b0316111561130357602087018051906112ff82611717565b9052505b50505050808061131290611717565b9150506110b5565b50909392505050565b6000816020015182600001511115611349575060018201546001600160a01b031661136e565b60208201518251101561136a575060028201546001600160a01b031661136e565b5060005b92915050565b8280548282559060005260206000209081019282156113af579160200282015b828111156113af578251825591602001919060010190611394565b506113bb9291506113ff565b5090565b8280548282559060005260206000209081019282156113af5760005260206000209182015b828111156113af5782548255916001019190600101906113e4565b5b808211156113bb5760008155600101611400565b60006020828403121561142657600080fd5b5035919050565b634e487b7160e01b600052602160045260246000fd5b8781526001600160a01b038781166020808401919091529087166040830152606082018690528451608083015284015160a082015260c081018390526101008101600483106114a257634e487b7160e01b600052602160045260246000fd5b8260e083015298975050505050505050565b80356001600160801b03811681146114cb57600080fd5b919050565b6000806000806000806000806000806101408b8d0312156114f057600080fd5b8a35995060208b0135985060408b0135975061150e60608c016114b4565b965061151c60808c016114b4565b955061152a60a08c016114b4565b945061153860c08c016114b4565b935061154660e08c016114b4565b92506115556101008c016114b4565b91506115646101208c016114b4565b90509295989b9194979a5092959850565b634e487b7160e01b600052604160045260246000fd5b600082601f83011261159c57600080fd5b8135602067ffffffffffffffff808311156115b9576115b9611575565b8260051b604051601f19603f830116810181811084821117156115de576115de611575565b6040529384528581018301938381019250878511156115fc57600080fd5b83870191505b8482101561161b57813583529183019190830190611602565b979650505050505050565b6000806040838503121561163957600080fd5b82359150602083013567ffffffffffffffff81111561165757600080fd5b6116638582860161158b565b9150509250929050565b60008060006060848603121561168257600080fd5b83356001600160a01b038116811461169957600080fd5b925060208401359150604084013567ffffffffffffffff8111156116bc57600080fd5b6116c88682870161158b565b9150509250925092565b6000602082840312156116e457600080fd5b5051919050565b634e487b7160e01b600052603260045260246000fd5b634e487b7160e01b600052601160045260246000fd5b60006001820161172957611729611701565b5060010190565b60006020828403121561174257600080fd5b8151801515811461175257600080fd5b9392505050565b8082018082111561136e5761136e611701565b808202811582820484141761136e5761136e611701565b8181038181111561136e5761136e611701565b6001600160801b038181168382160190808211156117b6576117b6611701565b5092915050565b6000826117da57634e487b7160e01b600052601260045260246000fd5b50069056fea26469706673582212208e4a98a0efb7c962bf478c3c693d1517ebc16254d525124535671e73ec0f3fe064736f6c63430008110033",
  "linkReferences": {},
  "deployedLinkReferences": {}
}